{
  "contractName": "donations",
  "abi": [
    {
      "inputs": [],
      "payable": false,
      "stateMutability": "nonpayable",
      "type": "constructor"
    },
    {
      "constant": true,
      "inputs": [
        {
          "internalType": "uint256",
          "name": "",
          "type": "uint256"
        }
      ],
      "name": "donorArray",
      "outputs": [
        {
          "internalType": "string",
          "name": "donr",
          "type": "string"
        },
        {
          "internalType": "uint256",
          "name": "donor_id",
          "type": "uint256"
        },
        {
          "internalType": "uint256",
          "name": "organ_id",
          "type": "uint256"
        },
        {
          "internalType": "string",
          "name": "organ",
          "type": "string"
        },
        {
          "internalType": "string",
          "name": "bg",
          "type": "string"
        },
        {
          "internalType": "uint256",
          "name": "status",
          "type": "uint256"
        },
        {
          "internalType": "uint256",
          "name": "hosp_id",
          "type": "uint256"
        }
      ],
      "payable": false,
      "stateMutability": "view",
      "type": "function"
    },
    {
      "constant": false,
      "inputs": [
        {
          "internalType": "string",
          "name": "_donor",
          "type": "string"
        },
        {
          "internalType": "uint256",
          "name": "_did",
          "type": "uint256"
        },
        {
          "internalType": "string",
          "name": "_organ",
          "type": "string"
        },
        {
          "internalType": "uint256",
          "name": "_oid",
          "type": "uint256"
        },
        {
          "internalType": "string",
          "name": "_bg",
          "type": "string"
        },
        {
          "internalType": "uint256",
          "name": "_hosp",
          "type": "uint256"
        },
        {
          "internalType": "uint256",
          "name": "_status",
          "type": "uint256"
        }
      ],
      "name": "initDonor",
      "outputs": [],
      "payable": false,
      "stateMutability": "nonpayable",
      "type": "function"
    }
  ],
  "bytecode": "0x608060405234801561001057600080fd5b506000808190555061080b806100276000396000f3fe608060405234801561001057600080fd5b50600436106100365760003560e01c8063e34c94a41461003b578063eee10e24146101d6575b600080fd5b6100676004803603602081101561005157600080fd5b81019080803590602001909291905050506103e7565b6040518080602001888152602001878152602001806020018060200186815260200185815260200184810384528b818151815260200191508051906020019080838360005b838110156100c75780820151818401526020810190506100ac565b50505050905090810190601f1680156100f45780820380516001836020036101000a031916815260200191505b50848103835288818151815260200191508051906020019080838360005b8381101561012d578082015181840152602081019050610112565b50505050905090810190601f16801561015a5780820380516001836020036101000a031916815260200191505b50848103825287818151815260200191508051906020019080838360005b83811015610193578082015181840152602081019050610178565b50505050905090810190601f1680156101c05780820380516001836020036101000a031916815260200191505b509a505050505050505050505060405180910390f35b6103e5600480360360e08110156101ec57600080fd5b810190808035906020019064010000000081111561020957600080fd5b82018360208201111561021b57600080fd5b8035906020019184600183028401116401000000008311171561023d57600080fd5b91908080601f016020809104026020016040519081016040528093929190818152602001838380828437600081840152601f19601f82011690508083019250505050505050919291929080359060200190929190803590602001906401000000008111156102aa57600080fd5b8201836020820111156102bc57600080fd5b803590602001918460018302840111640100000000831117156102de57600080fd5b91908080601f016020809104026020016040519081016040528093929190818152602001838380828437600081840152601f19601f820116905080830192505050505050509192919290803590602001909291908035906020019064010000000081111561034b57600080fd5b82018360208201111561035d57600080fd5b8035906020019184600183028401116401000000008311171561037f57600080fd5b91908080601f016020809104026020016040519081016040528093929190818152602001838380828437600081840152601f19601f82011690508083019250505050505050919291929080359060200190929190803590602001909291905050506105fe565b005b600181815481106103f457fe5b9060005260206000209060070201600091509050806000018054600181600116156101000203166002900480601f0160208091040260200160405190810160405280929190818152602001828054600181600116156101000203166002900480156104a05780601f10610475576101008083540402835291602001916104a0565b820191906000526020600020905b81548152906001019060200180831161048357829003601f168201915b505050505090806001015490806002015490806003018054600181600116156101000203166002900480601f01602080910402602001604051908101604052809291908181526020018280546001816001161561010002031660029004801561054a5780601f1061051f5761010080835404028352916020019161054a565b820191906000526020600020905b81548152906001019060200180831161052d57829003601f168201915b505050505090806004018054600181600116156101000203166002900480601f0160208091040260200160405190810160405280929190818152602001828054600181600116156101000203166002900480156105e85780601f106105bd576101008083540402835291602001916105e8565b820191906000526020600020905b8154815290600101906020018083116105cb57829003601f168201915b5050505050908060050154908060060154905087565b6001806040518060e001604052808a81526020018981526020018781526020018881526020018681526020018481526020018581525090806001815401808255809150509060018203906000526020600020906007020160009091929091909150600082015181600001908051906020019061067b92919061070e565b50602082015181600101556040820151816002015560608201518160030190805190602001906106ac92919061070e565b5060808201518160040190805190602001906106c992919061070e565b5060a0820151816005015560c0820151816006015550500360008190555060606040518060600160405280602381526020016107b46023913990505050505050505050565b828054600181600116156101000203166002900490600052602060002090601f016020900481019282601f1061074f57805160ff191683800117855561077d565b8280016001018555821561077d579182015b8281111561077c578251825591602001919060010190610761565b5b50905061078a919061078e565b5090565b6107b091905b808211156107ac576000816000905550600101610794565b5090565b9056fe446f6e6f7220686173206265656e2073756363657366756c6c7920637265617465642ea265627a7a723158203e4fc70dd32fe3eb3b4a3ed5ac7795e86df23eeb06fea610af1526f0559432b864736f6c63430005100032",
  "source": "pragma solidity 0.5.16;\ncontract donations {\n//  event createDonor(string name, uint did, string msg);\n  struct donor{\n    string donr;//Donor name;\n    uint donor_id; // random generated hashcode (String unique id)\n    uint organ_id;//random generated hashcode (String unique id)\n    string organ; //Type of organ\n    string bg; //Donor blood group\n    uint status; //(not yet donted-0/only donated-1/implanted-2)\n    uint hosp_id;  //random generated hashcode (String unique id)\n  }\n  uint length;\n  donor[] public donorArray;\n  constructor() public{\n    length=0;\n  }\n  function initDonor(string memory _donor, uint _did ,string memory _organ, uint _oid, string memory _bg , uint _hosp, uint _status) public\n  {\n    //Note: Memory keyword denotes call by value for String\n    //uint did = _generateRandomID(_donor);\n    //uint oid = _generateRandomID(_organ);\n\n    length = donorArray.push(donor(_donor, _did, _oid,_organ,_bg,_status, _hosp))- 1;\n    string memory msg = \"Donor has been succesfully created.\";\n    //emit createDonor(_donor, did, msg);\n\n  }\n  function _generateRandomID(string memory _str) private view returns (uint) {\n      uint rand = uint(keccak256(abi.encodePacked(_str)));\n      return rand % 10;\n   }\n}\n",
  "sourcePath": "/home/abhirupa/Documents/Folder E/Github/DApp-To-Secure-Organ-Donation/Project folder/contracts/donations.sol",
  "compiler": {
    "name": "solc",
    "version": "0.5.16+commit.9c3226ce.Emscripten.clang"
  },
  "schemaVersion": "3.0.23",
  "updatedAt": "2020-02-26T07:45:43.412Z",
  "devdoc": {
    "methods": {}
  },
  "userdoc": {
    "methods": {}
  }
}