{
  "contractName": "donations",
  "abi": [
    {
      "anonymous": false,
      "inputs": [
        {
          "indexed": false,
          "internalType": "string",
          "name": "name",
          "type": "string"
        },
        {
          "indexed": false,
          "internalType": "uint256",
          "name": "did",
          "type": "uint256"
        },
        {
          "indexed": false,
          "internalType": "string",
          "name": "msg",
          "type": "string"
        }
      ],
      "name": "createDonor",
      "type": "event"
    },
    {
      "constant": true,
      "inputs": [
        {
          "internalType": "uint256",
          "name": "",
          "type": "uint256"
        }
      ],
      "name": "donorArray",
      "outputs": [
        {
          "internalType": "string",
          "name": "donor",
          "type": "string"
        },
        {
          "internalType": "uint256",
          "name": "donor_id",
          "type": "uint256"
        },
        {
          "internalType": "uint256",
          "name": "organ_id",
          "type": "uint256"
        },
        {
          "internalType": "string",
          "name": "organ",
          "type": "string"
        },
        {
          "internalType": "string",
          "name": "bg",
          "type": "string"
        },
        {
          "internalType": "uint256",
          "name": "status",
          "type": "uint256"
        },
        {
          "internalType": "address",
          "name": "hosp_id",
          "type": "address"
        }
      ],
      "payable": false,
      "stateMutability": "view",
      "type": "function"
    }
  ],
  "bytecode": "0x608060405234801561001057600080fd5b50610463806100206000396000f3fe608060405234801561001057600080fd5b506004361061002b5760003560e01c8063e34c94a414610030575b600080fd5b61005c6004803603602081101561004657600080fd5b81019080803590602001909291905050506101f7565b604051808060200188815260200187815260200180602001806020018681526020018573ffffffffffffffffffffffffffffffffffffffff1673ffffffffffffffffffffffffffffffffffffffff16815260200184810384528b818151815260200191508051906020019080838360005b838110156100e85780820151818401526020810190506100cd565b50505050905090810190601f1680156101155780820380516001836020036101000a031916815260200191505b50848103835288818151815260200191508051906020019080838360005b8381101561014e578082015181840152602081019050610133565b50505050905090810190601f16801561017b5780820380516001836020036101000a031916815260200191505b50848103825287818151815260200191508051906020019080838360005b838110156101b4578082015181840152602081019050610199565b50505050905090810190601f1680156101e15780820380516001836020036101000a031916815260200191505b509a505050505050505050505060405180910390f35b6000818154811061020457fe5b9060005260206000209060070201600091509050806000018054600181600116156101000203166002900480601f0160208091040260200160405190810160405280929190818152602001828054600181600116156101000203166002900480156102b05780601f10610285576101008083540402835291602001916102b0565b820191906000526020600020905b81548152906001019060200180831161029357829003601f168201915b505050505090806001015490806002015490806003018054600181600116156101000203166002900480601f01602080910402602001604051908101604052809291908181526020018280546001816001161561010002031660029004801561035a5780601f1061032f5761010080835404028352916020019161035a565b820191906000526020600020905b81548152906001019060200180831161033d57829003601f168201915b505050505090806004018054600181600116156101000203166002900480601f0160208091040260200160405190810160405280929190818152602001828054600181600116156101000203166002900480156103f85780601f106103cd576101008083540402835291602001916103f8565b820191906000526020600020905b8154815290600101906020018083116103db57829003601f168201915b5050505050908060050154908060060160009054906101000a900473ffffffffffffffffffffffffffffffffffffffff1690508756fea265627a7a723158201233f5bf43c14151c2480b310db8a82cf48982af898aea86d2d230e3fa18b24c64736f6c63430005100032",
  "source": "pragma solidity 0.5.16;\n\ncontract donations {\n  //Read/write donor\n\n  event createDonor(string name, uint did, string msg);\n\n  struct donor{\n    string donor;//Donor name;\n    uint donor_id; // random generated hashcode (String unique id)\n    uint organ_id;//random generated hashcode (String unique id)\n    string organ; //Type of organ\n    string bg; //Donor blood group\n    uint status; //(not yet donted-0/only donated-1/implanted-2)\n    address hosp_id;  //random generated hashcode (String unique id)\n  }\n\n  donor[] public donorArray;\n\n  /**In Solidity, functions are public by default. This means anyone (or any other contract) can call your contract's function and execute its code.\n  Obviously this isn't always desirable, and can make your contract vulnerable to attacks.\n  Thus it's good practice to mark your functions as private by default, and then only make public the\n  functions you want to expose to the world.**/\n\n  function _initDonor(string memory _donor, string memory _organ, string memory _bg , uint _status) private\n  {\n    //Note: Memory keyword denotes call by value for String\n    uint did = _generateRandomID(_donor);\n    uint oid = _generateRandomID(_organ);\n    uint length = donorArray.push(donor(_donor, did, oid,_organ,_bg,_status, msg.sender))- 1;\n    string memory msg = \"Donor has been succesfully created.\";\n    emit createDonor(_donor, did, msg);\n\n  }\n\n  //keccak256 isnt a totally secure approach, anything else? Think later.\n\n  function _generateRandomID(string memory _str) private view returns (uint) {\n      uint rand = uint(keccak256(abi.encodePacked(_str)));\n      return rand % 10;\n   }\n\n   //We are going to set the ownership of the organ to the hospital the current hospital or associated donation bank\n\n  //Module wise division:\n  /**1. Hospital requests for creation of a block of data\n     2. Continuosly track the data and update the location\n     3. Update status.\n     4. Receiving hospital search for suited donor and update status.**/\n}\n",
  "sourcePath": "/home/abhirupa/Documents/Folder E/Github/DApp-To-Secure-Organ-Donation/Project folder/contracts/donations.sol",
  "compiler": {
    "name": "solc",
    "version": "0.5.16+commit.9c3226ce.Emscripten.clang"
  },
  "schemaVersion": "3.0.23",
  "updatedAt": "2020-02-23T20:16:44.528Z",
  "devdoc": {
    "methods": {}
  },
  "userdoc": {
    "methods": {}
  }
}