{
  "contractName": "donations",
  "abi": [
    {
      "inputs": [],
      "payable": false,
      "stateMutability": "nonpayable",
      "type": "constructor"
    },
    {
      "constant": true,
      "inputs": [
        {
          "internalType": "uint256",
          "name": "",
          "type": "uint256"
        }
      ],
      "name": "donorArray",
      "outputs": [
        {
          "internalType": "string",
          "name": "donr",
          "type": "string"
        },
        {
          "internalType": "uint256",
          "name": "donor_id",
          "type": "uint256"
        },
        {
          "internalType": "uint256",
          "name": "organ_id",
          "type": "uint256"
        },
        {
          "internalType": "string",
          "name": "organ",
          "type": "string"
        },
        {
          "internalType": "string",
          "name": "bg",
          "type": "string"
        },
        {
          "internalType": "uint256",
          "name": "status",
          "type": "uint256"
        },
        {
          "internalType": "address",
          "name": "hosp_id",
          "type": "address"
        }
      ],
      "payable": false,
      "stateMutability": "view",
      "type": "function"
    },
    {
      "constant": false,
      "inputs": [
        {
          "internalType": "string",
          "name": "_donor",
          "type": "string"
        },
        {
          "internalType": "string",
          "name": "_organ",
          "type": "string"
        },
        {
          "internalType": "string",
          "name": "_bg",
          "type": "string"
        },
        {
          "internalType": "uint256",
          "name": "_status",
          "type": "uint256"
        }
      ],
      "name": "initDonor",
      "outputs": [],
      "payable": false,
      "stateMutability": "nonpayable",
      "type": "function"
    }
  ],
  "bytecode": "0x608060405234801561001057600080fd5b5060008081905550610932806100276000396000f3fe608060405234801561001057600080fd5b50600436106100365760003560e01c8063d2e1b6001461003b578063e34c94a41461022e575b600080fd5b61022c6004803603608081101561005157600080fd5b810190808035906020019064010000000081111561006e57600080fd5b82018360208201111561008057600080fd5b803590602001918460018302840111640100000000831117156100a257600080fd5b91908080601f016020809104026020016040519081016040528093929190818152602001838380828437600081840152601f19601f8201169050808301925050505050505091929192908035906020019064010000000081111561010557600080fd5b82018360208201111561011757600080fd5b8035906020019184600183028401116401000000008311171561013957600080fd5b91908080601f016020809104026020016040519081016040528093929190818152602001838380828437600081840152601f19601f8201169050808301925050505050505091929192908035906020019064010000000081111561019c57600080fd5b8201836020820111156101ae57600080fd5b803590602001918460018302840111640100000000831117156101d057600080fd5b91908080601f016020809104026020016040519081016040528093929190818152602001838380828437600081840152601f19601f820116905080830192505050505050509192919290803590602001909291905050506103f5565b005b61025a6004803603602081101561024457600080fd5b8101908080359060200190929190505050610571565b604051808060200188815260200187815260200180602001806020018681526020018573ffffffffffffffffffffffffffffffffffffffff1673ffffffffffffffffffffffffffffffffffffffff16815260200184810384528b818151815260200191508051906020019080838360005b838110156102e65780820151818401526020810190506102cb565b50505050905090810190601f1680156103135780820380516001836020036101000a031916815260200191505b50848103835288818151815260200191508051906020019080838360005b8381101561034c578082015181840152602081019050610331565b50505050905090810190601f1680156103795780820380516001836020036101000a031916815260200191505b50848103825287818151815260200191508051906020019080838360005b838110156103b2578082015181840152602081019050610397565b50505050905090810190601f1680156103df5780820380516001836020036101000a031916815260200191505b509a505050505050505050505060405180910390f35b6000610400856107a8565b9050600061040d856107a8565b90506001806040518060e001604052808981526020018581526020018481526020018881526020018781526020018681526020013373ffffffffffffffffffffffffffffffffffffffff168152509080600181540180825580915050906001820390600052602060002090600702016000909192909190915060008201518160000190805190602001906104a2929190610835565b50602082015181600101556040820151816002015560608201518160030190805190602001906104d3929190610835565b5060808201518160040190805190602001906104f0929190610835565b5060a0820151816005015560c08201518160060160006101000a81548173ffffffffffffffffffffffffffffffffffffffff021916908373ffffffffffffffffffffffffffffffffffffffff16021790555050500360008190555060606040518060600160405280602381526020016108db60239139905050505050505050565b6001818154811061057e57fe5b9060005260206000209060070201600091509050806000018054600181600116156101000203166002900480601f01602080910402602001604051908101604052809291908181526020018280546001816001161561010002031660029004801561062a5780601f106105ff5761010080835404028352916020019161062a565b820191906000526020600020905b81548152906001019060200180831161060d57829003601f168201915b505050505090806001015490806002015490806003018054600181600116156101000203166002900480601f0160208091040260200160405190810160405280929190818152602001828054600181600116156101000203166002900480156106d45780601f106106a9576101008083540402835291602001916106d4565b820191906000526020600020905b8154815290600101906020018083116106b757829003601f168201915b505050505090806004018054600181600116156101000203166002900480601f0160208091040260200160405190810160405280929190818152602001828054600181600116156101000203166002900480156107725780601f1061074757610100808354040283529160200191610772565b820191906000526020600020905b81548152906001019060200180831161075557829003601f168201915b5050505050908060050154908060060160009054906101000a900473ffffffffffffffffffffffffffffffffffffffff16905087565b600080826040516020018082805190602001908083835b602083106107e257805182526020820191506020810190506020830392506107bf565b6001836020036101000a0380198251168184511680821785525050505050509050019150506040516020818303038152906040528051906020012060001c9050600a818161082c57fe5b06915050919050565b828054600181600116156101000203166002900490600052602060002090601f016020900481019282601f1061087657805160ff19168380011785556108a4565b828001600101855582156108a4579182015b828111156108a3578251825591602001919060010190610888565b5b5090506108b191906108b5565b5090565b6108d791905b808211156108d35760008160009055506001016108bb565b5090565b9056fe446f6e6f7220686173206265656e2073756363657366756c6c7920637265617465642ea265627a7a72315820a2ba176ed8f2e081bf2ffb0a57b6997b004e11bc560222e0d1d3ecbfd0b5b62364736f6c63430005100032",
  "source": "pragma solidity 0.5.16;\ncontract donations {\n//  event createDonor(string name, uint did, string msg);\n  struct donor{\n    string donr;//Donor name;\n    uint donor_id; // random generated hashcode (String unique id)\n    uint organ_id;//random generated hashcode (String unique id)\n    string organ; //Type of organ\n    string bg; //Donor blood group\n    uint status; //(not yet donted-0/only donated-1/implanted-2)\n    address hosp_id;  //random generated hashcode (String unique id)\n  }\n  uint length;\n  donor[] public donorArray;\n  constructor() public{\n    length=0;\n  }\n  function initDonor(string memory _donor, string memory _organ, string memory _bg , uint _status) public\n  {\n    //Note: Memory keyword denotes call by value for String\n    uint did = _generateRandomID(_donor);\n    uint oid = _generateRandomID(_organ);\n\n    length = donorArray.push(donor(_donor, did, oid,_organ,_bg,_status, msg.sender))- 1;\n    string memory msg = \"Donor has been succesfully created.\";\n    //emit createDonor(_donor, did, msg);\n\n  }\n  function _generateRandomID(string memory _str) private view returns (uint) {\n      uint rand = uint(keccak256(abi.encodePacked(_str)));\n      return rand % 10;\n   }\n}\n",
  "sourcePath": "/home/abhirupa/Documents/Folder E/Github/DApp-To-Secure-Organ-Donation/Project folder/contracts/donations.sol",
  "compiler": {
    "name": "solc",
    "version": "0.5.16+commit.9c3226ce.Emscripten.clang"
  },
  "schemaVersion": "3.0.23",
  "updatedAt": "2020-02-25T13:57:59.377Z",
  "networkType": "ethereum",
  "devdoc": {
    "methods": {}
  },
  "userdoc": {
    "methods": {}
  }
}